:100000000C9462000C948A000C948A000C948A0070
:100010000C948A000C948A000C948A000C948A0038
:100020000C948A000C948A000C948A000C943B0572
:100030000C948A000C948A000C948A000C948A0018
:100040000C94C3030C948A000C9491030C946B03DE
:100050000C948A000C948A000C948A000C948A00F8
:100060000C940D040C948A0000000000230026006C
:10007000290000000000240027002A0000000000E2
:10008000250028002B0004040404040404040202D4
:100090000202020203030303030301020408102007
:1000A0004080010204081020010204081020000012
:1000B0000008000201000003040700000000000027
:1000C0000000790611241FBECFEFD8E0DEBFCDBF00
:1000D00011E0A0E0B1E0EEEFF0E102C005900D927A
:1000E000A235B107D9F723E0A2E5B1E001C01D9226
:1000F000AE34B207E1F710E0C2E6D0E004C02197C9
:10010000FE010E946B08C136D107C9F70E945B0748
:100110000C947D080C940000CF92DF92EF92FF9236
:100120000F931F93CF93DF936C017A018B01C0E093
:10013000D0E0CE15DF0589F0D8016D918D01D60193
:10014000ED91FC910190F081E02DC6010995892B7C
:1001500011F47E0102C02196ECCFC701DF91CF914F
:100160001F910F91FF90EF90DF90CF900895FC01C9
:10017000538D448D252F30E0842F90E0821B930B0C
:10018000541710F0CF96089501970895FC01918DB2
:10019000828D981761F0828DDF01A80FB11D5D96E9
:1001A0008C91928D9F5F9F73928F90E008958FEF57
:1001B0009FEF0895FC01918D828D981731F0828D0B
:1001C000E80FF11D858D90E008958FEF9FEF089562
:1001D000FC01918D228D892F90E0805C9F4F821BC6
:1001E00091098F739927089580E592E00E94E800B5
:1001F00021E0892B09F420E0822F0895FC01848DF1
:10020000DF01A80FB11DA35ABF4F2C91848D90E040
:1002100001968F739927848FA689B7892C93A0891B
:10022000B1898C9180648C93938D848D981306C0D2
:100230000288F389E02D80818F7D80830895EF927D
:10024000FF920F931F93CF93DF93EC0181E0888F90
:100250009B8D8C8D981305C0E889F989808185FD77
:1002600024C0F62E0B8D10E00F5F1F4F0F73112768
:10027000E02E8C8DE8120CC00FB607FCFACFE8898F
:10028000F989808185FFF5CFCE010E94FE00F1CF74
:100290008B8DFE01E80FF11DE35AFF4FF0820B8FAB
:1002A000EA89FB898081806207C0EE89FF896083CB
:1002B000E889F98980818064808381E090E0DF9122
:1002C000CF911F910F91FF90EF900895CF93DF93FF
:1002D000EC01888D8823C9F0EA89FB89808185FD3E
:1002E00005C0A889B9898C9186FD0FC00FB607FC9F
:1002F000F5CF808185FFF2CFA889B9898C9185FFE0
:10030000EDCFCE010E94FE00E7CFDF91CF9108959F
:1003100080E090E0892B29F00E94F40081110C9478
:1003200000000895833081F028F4813099F0823004
:10033000A1F008958730A9F08830B9F08430D1F465
:10034000809180008F7D03C0809180008F778093A3
:100350008000089584B58F7702C084B58F7D84BDF9
:1003600008958091B0008F7703C08091B0008F7D99
:100370008093B00008951F93CF93DF93282F30E030
:10038000F901E255FF4F8491F901E656FF4FD491F0
:10039000F901EA57FF4FC491CC23C9F0162F811100
:1003A0000E949201EC2FF0E0EE0FFF1FE458FF4F88
:1003B000A591B4918FB7F894111105C09C91ED2FC0
:1003C000E095E92302C0EC91ED2BEC938FBFDF9118
:1003D000CF911F910895CF93DF9390E0FC01E656F3
:1003E000FF4F2491FC01EA57FF4F8491882361F16C
:1003F00090E0880F991FFC01EE58FF4FC591D491F2
:10040000FC01E458FF4FA591B491611109C09FB759
:10041000F8948881209582238883EC912E230BC049
:10042000623061F49FB7F8943881822F80958323DE
:100430008883EC912E2B2C939FBF06C08FB7F89426
:10044000E8812E2B28838FBFDF91CF91089585ED12
:100450008093BC008091BC0084FDFCCF10921F02F1
:1004600008954091F901262F30E0240F311D2132EB
:100470003105DCF420911F022430C9F4FC0180E036
:1004800090E0861758F43091F9012191DC01A952CE
:10049000BE4FA30FB11D2C930196F3CF8091F901AC
:1004A000680F6093F90180E0089581E0089582E08B
:1004B000089508958FEF9FEF08958FEF9FEF0895B0
:1004C0008091D60190E09195819591090895CF9200
:1004D000DF92EF92FF920F931F93CF93DF937C01F4
:1004E000262F972F8A018091D501882391F0C62F5E
:1004F000D72F6E01C40ED51ECC15DD0571F06991A4
:10050000D701ED91FC910190F081E02DC701099593
:10051000F3CF642F822F0E943102C801DF91CF9167
:100520001F910F91FF90EF90DF90CF900895CF93A0
:10053000DF931F92CDB7DEB769832091D5012223C7
:10054000D1F02091D401203240F021E030E0FC01D4
:100550003383228380E090E015C08091D301E82F9F
:10056000F0E0ED54FE4F998190838F5F8093D3012B
:100570008093D40105C061E0CE0101960E94310252
:1005800081E090E00F90DF91CF910895CF93FC012F
:10059000C48121E02093D501C09352011092D30170
:1005A0001092D4018385682B8DEE92E00E94970211
:1005B0008091D401813208F046C090911F029111C0
:1005C000FCCF92E090931F0291E0909321029FEF65
:1005D00090931E021092430280934202A3EBB1E07B
:1005E00022E232E0F9019E2F921B981718F49D9198
:1005F0009193F9CF1092440280914402CC0FC82B02
:10060000C093440280912002813061F41092200254
:10061000809144028093BB008091BC0083FDF8CFA1
:1006200085EC01C085EE8093BC0080911F02823072
:10063000E1F380911E028F3F31F080911E028032E3
:1006400011F080911E021092D3011092D4011092E9
:10065000D501CF9108950F931F93CF938C01C62F8F
:1006600064600E94C6026C2F6B7FC8010E94C602A4
:1006700083EC90E00197F1F7CF911F910F910895CE
:100680000F931F93CF93DF938C01C62FD62FD07F6C
:10069000D1606D2F0E94C6026D2FC8010E942B03EE
:1006A00080E1C89FB0011124C62FC1606C2FC80122
:1006B0000E94C6026C2FC8010E942B0381E090E0CB
:1006C000DF91CF911F910F910895089580E090E000
:1006D00008950E9471081F920F920FB60F92112475
:1006E0002F933F934F935F936F937F938F939F933A
:1006F000AF93BF93EF93FF9380E592E00E94FE00DB
:10070000FF91EF91BF91AF919F918F917F916F91E9
:100710005F914F913F912F910F900FBE0F901F90BF
:1007200018951F920F920FB60F9211242F938F934B
:100730009F93EF93FF93E0916002F09161028081BB
:10074000E0916602F091670282FD12C09081809173
:1007500069028F5F8F7320916A02821751F0E091D6
:100760006902F0E0E05BFD4F958F8093690201C064
:100770008081FF91EF919F918F912F910F900FBEEC
:100780000F901F9018951F920F920FB60F92112481
:100790002F933F938F939F93AF93BF9380914A0280
:1007A00090914B02A0914C02B0914D0230914902C0
:1007B00023E0230F2D3720F40196A11DB11D05C0A4
:1007C00026E8230F0296A11DB11D209349028093B4
:1007D0004A0290934B02A0934C02B0934D02809139
:1007E000450290914602A0914702B09148020196BD
:1007F000A11DB11D8093450290934602A09347022C
:10080000B0934802BF91AF919F918F913F912F91EB
:100810000F900FBE0F901F9018951F920F920FB65A
:100820000F9211242F933F934F935F936F937F9376
:100830008F939F93AF93BF93EF93FF938091B900F2
:10084000887F803609F49CC068F5883209F45BC063
:1008500090F4803109F454C038F4882309F4F6C0C8
:10086000883009F44DC0F6C0883109F44CC080329C
:1008700009F45DC0EFC0803409F468C048F48033E7
:1008800009F455C0883309F0E5C080931E02D8C032
:10089000803509F44FC0883509F45DC0883409F00B
:1008A000D9C0D6C0883909F4C7C0A8F4883709F47C
:1008B00067C038F4883609F463C0803709F460C033
:1008C000C9C0883809F4B8C0803909F45FC08038DD
:1008D00009F0C0C05BC0803B09F486C038F4803AA0
:1008E00009F466C0883A09F47FC0B4C0803C09F4BA
:1008F000A7C0883C09F4A4C0883B09F48AC0AAC0F8
:100900008091440210C09091430280914202981756
:1009100070F5E091430281E08E0F80934302F0E096
:10092000EE5DFD4F80818093BB0085EC86C0809397
:100930001E028EC0E091430281E08E0F809343023D
:100940008091BB00F0E0EE5DFD4F8083909143020B
:10095000809142026EC0E091430281E08E0F80934D
:1009600043028091BB00F0E0EE5DFD4F80838091FB
:10097000210281116DC081E08093200284EA61C070
:1009800083E080931F0210921D02CFCF80911D0241
:10099000803208F051C0E0911D0281E08E0F8093FB
:1009A0001D028091BB00F0E0E350FE4F8083BDCF7D
:1009B00085EC8093BC0010921F0280911D02803252
:1009C00030F4E0911D02F0E0E350FE4F10826091A0
:1009D0001D0270E0E091FB01F091FC018DEF91E0D0
:1009E000099510921D0236C084E080931F02109278
:1009F000FA011092F901E091F701F091F8010995DF
:100A00008091F901811105C081E08093F901109274
:100A1000D701E091FA0181E08E0F8093FA01F0E0B6
:100A2000E952FE4F80818093BB009091FA01809142
:100A3000F901981708F479CF85E88093BC000AC0C3
:100A400085EC8093BC0010921F0204C010921E021D
:100A50000E942702FF91EF91BF91AF919F918F91DB
:100A60007F916F915F914F913F912F910F900FBEAA
:100A70000F901F9018951F920F920FB60F9211248E
:100A80001F932F933F934F935F936F937F938F9316
:100A90009F93AF93BF93CF93DF93EF93FF93109107
:100AA0004F02112331F18091B201811122C02091B6
:100AB000000130E0F901E255FF4F8491F901E6565B
:100AC000FF4FD491F901EA57FF4FC491CC2359F15C
:100AD00081110E949201EC2FF0E0EE0FFF1FE85908
:100AE000FF4FA591B491EC91ED2381E0E1F080936B
:100AF000B1018091B201882341F08091B00191E071
:100B0000980F9093B001882381F08091B0018830D4
:100B100010F01092B001112309F4D7C04091B20136
:100B20004423B9F0D2C080E0E2CF60E08AE00E94C6
:100B3000BB0160E08CE00E94BB011092B201809189
:100B4000AE019091AF0101969093AF018093AE01F9
:100B5000DCCF8091B101882329F09091AD019F5F96
:100B60009093AD012091AC019091AB01821759F0A7
:100B7000903510F02DE101C02BE0920F9093AB0166
:100B80008093AC0103C09C5E9093AB019091AB014C
:100B9000903A08F49AC02091A9013091AA013695A3
:100BA00027953093AA012093A9018091AD0185304A
:100BB00028F038603093AA012093A901905A9093AD
:100BC000AB011092AD0180914E02882309F46DC0F3
:100BD0009091A8019F5F9093A8019C3008F475C084
:100BE0002091A9013091AA01822F8F73982F969599
:100BF0009695987058E0590F951749F0E92FF0E055
:100C0000E15FFE4F6081861719F09F5FF5CF90E09E
:100C100050E1959FC001112496E0369527959A954D
:100C2000E1F7522F3695279536952795287038E0AD
:100C3000320F231751F0E22FF0E0E15FFE4F6081A9
:100C4000561711F02F5FF5CF422F842B9091A701FB
:100C500091110EC08093A6019CEF980F9D3440F037
:100C600010924E028091A5018F5F8093A5012DC047
:100C7000E091A70191E09E0F9093A701F0E0EB5A5D
:100C8000FE4F80839091A7018091A601981750F0A4
:100C900010924E02809154018F5F8093540181E045
:100CA000809353011092A80110C08091A9019091E6
:100CB000AA0188339B4049F481E080934E02109250
:100CC000A8011092A70110925301FF91EF91DF91BB
:100CD000CF91BF91AF919F918F917F916F915F91D4
:100CE0004F913F912F911F910F900FBE0F901F902A
:100CF0001895109253021092520288EE93E0A0E0F1
:100D0000B0E08093540290935502A0935602B093A2
:100D1000570223E231E0309351022093500225EC38
:100D200030E030935D0220935C0224EC30E030939D
:100D30005F0220935E0220EC30E03093610220934A
:100D4000600221EC30E0309363022093620222ECD7
:100D500030E0309365022093640226EC30E030935B
:100D60006702209366021092690210926A02109242
:100D70006B0210926C021092F0021092EF028093BC
:100D8000F1029093F202A093F302B093F40285E390
:100D900091E09093EE028093ED0210924503109241
:100DA000440387E491E0909343038093420387E2F6
:100DB0008093460384E180934A0384E080934B034D
:100DC00010924C0388E080934D0385E080933803B4
:100DD0001092390381E080933A0380933B03109291
:100DE0003D0310923C0310922A03109229031092A3
:100DF0002B0310923E0310923F0310924003109277
:100E0000410384E190E0A0E0B0E080932C03909354
:100E10002D03A0932E03B0932F038AEF90E0A0E060
:100E2000B0E08093300390933103A0933203B093EA
:100E3000330388E893E1A0E0B0E08093340390931B
:100E40003503A0933603B093370360E085E00E943A
:100E5000EB0180913903811105C061E08091380375
:100E60000E94BB0189E08093280361E00E94BB01DE
:100E70001092FA021092F9021092FB021092FD02F7
:100E80001092FC021092FF021092FE028AE0809300
:100E900002038DE080930303109227031092260330
:100EA0006FE471E080E093E00E9476081092040302
:100EB000109225030895CF93DF93CDB7DEB72E9719
:100EC0000FB6F894DEBF0FBECDBF789484B58260B4
:100ED00084BD84B5816084BD85B5826085BD85B5DE
:100EE000816085BD80916E00816080936E0010925C
:100EF00081008091810082608093810080918100D7
:100F00008160809381008091800081608093800067
:100F10008091B10084608093B1008091B0008160C5
:100F20008093B00080917A00846080937A008091F1
:100F30007A00826080937A0080917A008160809349
:100F40007A0080917A00806880937A001092C100C4
:100F5000E0916002F091610282E08083E0915C02A6
:100F6000F0915D021082E0915E02F0915F0287E6EF
:100F7000808310926802E0916402F091650286E03D
:100F80008083E0916202F0916302808180618083BE
:100F9000E0916202F0916302808188608083E09139
:100FA0006202F0916302808180688083E091620236
:100FB000F091630280818F7D808384B184B988E061
:100FC000809300018EE0E1E0F1E0DE0111960190F6
:100FD0000D928A95E1F77E0183E0E80EF11C11E0A5
:100FE000812C84E2982E84EFA82EB12C90E4492E17
:100FF0009FE1592E612C712CF701219131917F01D4
:1010000040E050E0C501B4010E944908CA01B9019D
:10101000A30192010E944908223031054105510582
:1010200020F41F5F173041F728C0163031F111232B
:1010300021F11092800088E08093810080918100EE
:10104000182B1093810030938900209388008091A1
:101050006F00826080936F0061E08CE00E94EB0182
:1010600060E0809100010E94EB0161E08AE00E9453
:10107000EB0160E08AE00E94BB0180914F02811188
:1010800005C081E080934F0210924E020E948801B9
:10109000FDCFA1E21A2EAA1BBB1BFD010DC0AA1F8A
:1010A000BB1FEE1FFF1FA217B307E407F50720F0D1
:1010B000A21BB30BE40BF50B661F771F881F991F4C
:1010C0001A9469F760957095809590959B01AC0195
:1010D000BD01CF010895EE0FFF1F0590F491E02DA3
:1010E000099481E090E0F8940C947D08FB01DC0108
:0E10F00001900D920020E1F70895F894FFCFD3
:1010FE000B000001000800400000010004050D0D6A
:10110E000E131516191A1C232526292A2C323400E3
:10111E000000001F018C00B7006601E800C600DA6F
:10112E000000000000970267026603590260025D2C
:10113E00025A020000000040038C00660365032083
:02114E0000009F
:00000001FF
